{
  "contractName": "AssetTracker",
  "abi": [
    {
      "anonymous": false,
      "inputs": [
        {
          "indexed": false,
          "internalType": "uint256",
          "name": "id",
          "type": "uint256"
        },
        {
          "indexed": false,
          "internalType": "string",
          "name": "manufacturer",
          "type": "string"
        },
        {
          "indexed": false,
          "internalType": "string",
          "name": "status",
          "type": "string"
        }
      ],
      "name": "AssetCreate",
      "type": "event"
    },
    {
      "anonymous": false,
      "inputs": [
        {
          "indexed": false,
          "internalType": "uint256",
          "name": "id",
          "type": "uint256"
        },
        {
          "indexed": false,
          "internalType": "string",
          "name": "newOwner",
          "type": "string"
        },
        {
          "indexed": false,
          "internalType": "string",
          "name": "quantity",
          "type": "string"
        }
      ],
      "name": "AssetTransfer",
      "type": "event"
    },
    {
      "anonymous": false,
      "inputs": [
        {
          "indexed": false,
          "internalType": "uint256",
          "name": "id",
          "type": "uint256"
        },
        {
          "indexed": false,
          "internalType": "string",
          "name": "manufacturer",
          "type": "string"
        },
        {
          "indexed": false,
          "internalType": "string",
          "name": "status",
          "type": "string"
        }
      ],
      "name": "IdentityCreate",
      "type": "event"
    },
    {
      "constant": true,
      "inputs": [
        {
          "internalType": "uint256",
          "name": "",
          "type": "uint256"
        }
      ],
      "name": "AssetStore",
      "outputs": [
        {
          "internalType": "uint256",
          "name": "id",
          "type": "uint256"
        },
        {
          "internalType": "string",
          "name": "batchNo",
          "type": "string"
        },
        {
          "internalType": "string",
          "name": "name",
          "type": "string"
        },
        {
          "internalType": "string",
          "name": "description",
          "type": "string"
        },
        {
          "internalType": "string",
          "name": "manufacturer",
          "type": "string"
        },
        {
          "internalType": "uint256",
          "name": "statusCount",
          "type": "uint256"
        },
        {
          "internalType": "string",
          "name": "quantity",
          "type": "string"
        }
      ],
      "payable": false,
      "stateMutability": "view",
      "type": "function"
    },
    {
      "constant": true,
      "inputs": [
        {
          "internalType": "uint256",
          "name": "",
          "type": "uint256"
        }
      ],
      "name": "IdentityStore",
      "outputs": [
        {
          "internalType": "uint256",
          "name": "count",
          "type": "uint256"
        },
        {
          "internalType": "string",
          "name": "addresser",
          "type": "string"
        },
        {
          "internalType": "string",
          "name": "name",
          "type": "string"
        },
        {
          "internalType": "string",
          "name": "phone",
          "type": "string"
        },
        {
          "internalType": "string",
          "name": "email",
          "type": "string"
        },
        {
          "internalType": "string",
          "name": "password",
          "type": "string"
        }
      ],
      "payable": false,
      "stateMutability": "view",
      "type": "function"
    },
    {
      "constant": true,
      "inputs": [],
      "name": "assetCount",
      "outputs": [
        {
          "internalType": "uint256",
          "name": "",
          "type": "uint256"
        }
      ],
      "payable": false,
      "stateMutability": "view",
      "type": "function"
    },
    {
      "constant": true,
      "inputs": [],
      "name": "identityCount",
      "outputs": [
        {
          "internalType": "uint256",
          "name": "",
          "type": "uint256"
        }
      ],
      "payable": false,
      "stateMutability": "view",
      "type": "function"
    },
    {
      "constant": false,
      "inputs": [
        {
          "internalType": "string",
          "name": "_batchNo",
          "type": "string"
        },
        {
          "internalType": "string",
          "name": "_name",
          "type": "string"
        },
        {
          "internalType": "string",
          "name": "_description",
          "type": "string"
        },
        {
          "internalType": "string",
          "name": "_manufacturer",
          "type": "string"
        },
        {
          "internalType": "string",
          "name": "_owner",
          "type": "string"
        },
        {
          "internalType": "string",
          "name": "_quantity",
          "type": "string"
        },
        {
          "internalType": "string",
          "name": "_status",
          "type": "string"
        }
      ],
      "name": "createAsset",
      "outputs": [
        {
          "internalType": "uint256",
          "name": "",
          "type": "uint256"
        }
      ],
      "payable": false,
      "stateMutability": "nonpayable",
      "type": "function"
    },
    {
      "constant": true,
      "inputs": [
        {
          "internalType": "uint256",
          "name": "_id",
          "type": "uint256"
        }
      ],
      "name": "getAsset",
      "outputs": [
        {
          "internalType": "string",
          "name": "",
          "type": "string"
        },
        {
          "internalType": "string",
          "name": "",
          "type": "string"
        },
        {
          "internalType": "string",
          "name": "",
          "type": "string"
        },
        {
          "internalType": "string",
          "name": "",
          "type": "string"
        },
        {
          "internalType": "string",
          "name": "",
          "type": "string"
        },
        {
          "internalType": "string",
          "name": "",
          "type": "string"
        },
        {
          "internalType": "string",
          "name": "",
          "type": "string"
        }
      ],
      "payable": false,
      "stateMutability": "view",
      "type": "function"
    },
    {
      "constant": false,
      "inputs": [
        {
          "internalType": "uint256",
          "name": "_id",
          "type": "uint256"
        },
        {
          "internalType": "string",
          "name": "_newOwner",
          "type": "string"
        },
        {
          "internalType": "string",
          "name": "_status",
          "type": "string"
        },
        {
          "internalType": "string",
          "name": "_quantity",
          "type": "string"
        },
        {
          "internalType": "string",
          "name": "_oldOwner",
          "type": "string"
        }
      ],
      "name": "transferAsset",
      "outputs": [
        {
          "internalType": "string",
          "name": "",
          "type": "string"
        }
      ],
      "payable": false,
      "stateMutability": "nonpayable",
      "type": "function"
    },
    {
      "constant": true,
      "inputs": [],
      "name": "getAssetCount",
      "outputs": [
        {
          "internalType": "uint256",
          "name": "",
          "type": "uint256"
        }
      ],
      "payable": false,
      "stateMutability": "view",
      "type": "function"
    },
    {
      "constant": true,
      "inputs": [
        {
          "internalType": "uint256",
          "name": "_id",
          "type": "uint256"
        },
        {
          "internalType": "uint256",
          "name": "_statusCount",
          "type": "uint256"
        }
      ],
      "name": "getStatus",
      "outputs": [
        {
          "internalType": "uint256",
          "name": "",
          "type": "uint256"
        },
        {
          "internalType": "string",
          "name": "",
          "type": "string"
        },
        {
          "internalType": "string",
          "name": "",
          "type": "string"
        }
      ],
      "payable": false,
      "stateMutability": "view",
      "type": "function"
    },
    {
      "constant": false,
      "inputs": [
        {
          "internalType": "string",
          "name": "_addresser",
          "type": "string"
        },
        {
          "internalType": "string",
          "name": "_name",
          "type": "string"
        },
        {
          "internalType": "string",
          "name": "_phone",
          "type": "string"
        },
        {
          "internalType": "string",
          "name": "_email",
          "type": "string"
        },
        {
          "internalType": "string",
          "name": "_password",
          "type": "string"
        }
      ],
      "name": "createIdentity",
      "outputs": [
        {
          "internalType": "uint256",
          "name": "",
          "type": "uint256"
        }
      ],
      "payable": false,
      "stateMutability": "nonpayable",
      "type": "function"
    },
    {
      "constant": true,
      "inputs": [
        {
          "internalType": "uint256",
          "name": "_id",
          "type": "uint256"
        },
        {
          "internalType": "string",
          "name": "_addresser",
          "type": "string"
        }
      ],
      "name": "getIdentity",
      "outputs": [
        {
          "internalType": "string",
          "name": "",
          "type": "string"
        },
        {
          "internalType": "string",
          "name": "",
          "type": "string"
        },
        {
          "internalType": "string",
          "name": "",
          "type": "string"
        },
        {
          "internalType": "string",
          "name": "",
          "type": "string"
        },
        {
          "internalType": "string",
          "name": "",
          "type": "string"
        }
      ],
      "payable": false,
      "stateMutability": "view",
      "type": "function"
    },
    {
      "constant": true,
      "inputs": [],
      "name": "getidentityCount",
      "outputs": [
        {
          "internalType": "uint256",
          "name": "",
          "type": "uint256"
        }
      ],
      "payable": false,
      "stateMutability": "view",
      "type": "function"
    }
  ],
  "bytecode": "0x60806040526000600155600060035534801561001a57600080fd5b50612d768061002a6000396000f3fe608060405234801561001057600080fd5b50600436106100b45760003560e01c8063a0aead4d11610071578063a0aead4d14610c4b578063a745da6514610c53578063b8df43ae14610d5b578063d8feb0eb14610f8f578063eac8f5b81461123e578063eafe7a741461153a576100b4565b806316146e6a146100b95780632d22cafd1461038357806338678ba51461038b578063672af74e1461039357806369e94f9f14610755578063872bec8514610990575b600080fd5b610371600480360360a08110156100cf57600080fd5b810190602081018135600160201b8111156100e957600080fd5b8201836020820111156100fb57600080fd5b803590602001918460018302840111600160201b8311171561011c57600080fd5b91908080601f0160208091040260200160405190810160405280939291908181526020018383808284376000920191909152509295949360208101935035915050600160201b81111561016e57600080fd5b82018360208201111561018057600080fd5b803590602001918460018302840111600160201b831117156101a157600080fd5b91908080601f0160208091040260200160405190810160405280939291908181526020018383808284376000920191909152509295949360208101935035915050600160201b8111156101f357600080fd5b82018360208201111561020557600080fd5b803590602001918460018302840111600160201b8311171561022657600080fd5b91908080601f0160208091040260200160405190810160405280939291908181526020018383808284376000920191909152509295949360208101935035915050600160201b81111561027857600080fd5b82018360208201111561028a57600080fd5b803590602001918460018302840111600160201b831117156102ab57600080fd5b91908080601f0160208091040260200160405190810160405280939291908181526020018383808284376000920191909152509295949360208101935035915050600160201b8111156102fd57600080fd5b82018360208201111561030f57600080fd5b803590602001918460018302840111600160201b8311171561033057600080fd5b91908080601f016020809104026020016040519081016040528093929190818152602001838380828437600092019190915250929550611542945050505050565b60408051918252519081900360200190f35b61037161172e565b610371611735565b610371600480360360e08110156103a957600080fd5b810190602081018135600160201b8111156103c357600080fd5b8201836020820111156103d557600080fd5b803590602001918460018302840111600160201b831117156103f657600080fd5b91908080601f0160208091040260200160405190810160405280939291908181526020018383808284376000920191909152509295949360208101935035915050600160201b81111561044857600080fd5b82018360208201111561045a57600080fd5b803590602001918460018302840111600160201b8311171561047b57600080fd5b91908080601f0160208091040260200160405190810160405280939291908181526020018383808284376000920191909152509295949360208101935035915050600160201b8111156104cd57600080fd5b8201836020820111156104df57600080fd5b803590602001918460018302840111600160201b8311171561050057600080fd5b91908080601f0160208091040260200160405190810160405280939291908181526020018383808284376000920191909152509295949360208101935035915050600160201b81111561055257600080fd5b82018360208201111561056457600080fd5b803590602001918460018302840111600160201b8311171561058557600080fd5b91908080601f0160208091040260200160405190810160405280939291908181526020018383808284376000920191909152509295949360208101935035915050600160201b8111156105d757600080fd5b8201836020820111156105e957600080fd5b803590602001918460018302840111600160201b8311171561060a57600080fd5b91908080601f0160208091040260200160405190810160405280939291908181526020018383808284376000920191909152509295949360208101935035915050600160201b81111561065c57600080fd5b82018360208201111561066e57600080fd5b803590602001918460018302840111600160201b8311171561068f57600080fd5b91908080601f0160208091040260200160405190810160405280939291908181526020018383808284376000920191909152509295949360208101935035915050600160201b8111156106e157600080fd5b8201836020820111156106f357600080fd5b803590602001918460018302840111600160201b8311171561071457600080fd5b91908080601f01602080910402602001604051908101604052809392919081815260200183838082843760009201919091525092955061173b945050505050565b6107726004803603602081101561076b57600080fd5b50356119c0565b60405180888152602001806020018060200180602001806020018781526020018060200186810386528c818151815260200191508051906020019080838360005b838110156107cb5781810151838201526020016107b3565b50505050905090810190601f1680156107f85780820380516001836020036101000a031916815260200191505b5086810385528b5181528b516020918201918d019080838360005b8381101561082b578181015183820152602001610813565b50505050905090810190601f1680156108585780820380516001836020036101000a031916815260200191505b5086810384528a5181528a516020918201918c019080838360005b8381101561088b578181015183820152602001610873565b50505050905090810190601f1680156108b85780820380516001836020036101000a031916815260200191505b5086810383528951815289516020918201918b019080838360005b838110156108eb5781810151838201526020016108d3565b50505050905090810190601f1680156109185780820380516001836020036101000a031916815260200191505b50868103825287518152875160209182019189019080838360005b8381101561094b578181015183820152602001610933565b50505050905090810190601f1680156109785780820380516001836020036101000a031916815260200191505b509c5050505050505050505050505060405180910390f35b610a3b600480360360408110156109a657600080fd5b81359190810190604081016020820135600160201b8111156109c757600080fd5b8201836020820111156109d957600080fd5b803590602001918460018302840111600160201b831117156109fa57600080fd5b91908080601f016020809104026020016040519081016040528093929190818152602001838380828437600092019190915250929550611cad945050505050565b60405180806020018060200180602001806020018060200186810386528b818151815260200191508051906020019080838360005b83811015610a88578181015183820152602001610a70565b50505050905090810190601f168015610ab55780820380516001836020036101000a031916815260200191505b5086810385528a5181528a516020918201918c019080838360005b83811015610ae8578181015183820152602001610ad0565b50505050905090810190601f168015610b155780820380516001836020036101000a031916815260200191505b5086810384528951815289516020918201918b019080838360005b83811015610b48578181015183820152602001610b30565b50505050905090810190601f168015610b755780820380516001836020036101000a031916815260200191505b5086810383528851815288516020918201918a019080838360005b83811015610ba8578181015183820152602001610b90565b50505050905090810190601f168015610bd55780820380516001836020036101000a031916815260200191505b50868103825287518152875160209182019189019080838360005b83811015610c08578181015183820152602001610bf0565b50505050905090810190601f168015610c355780820380516001836020036101000a031916815260200191505b509a505050505050505050505060405180910390f35b6103716120b4565b610c7660048036036040811015610c6957600080fd5b50803590602001356120ba565b604051808481526020018060200180602001838103835285818151815260200191508051906020019080838360005b83811015610cbd578181015183820152602001610ca5565b50505050905090810190601f168015610cea5780820380516001836020036101000a031916815260200191505b50838103825284518152845160209182019186019080838360005b83811015610d1d578181015183820152602001610d05565b50505050905090810190601f168015610d4a5780820380516001836020036101000a031916815260200191505b509550505050505060405180910390f35b610d7860048036036020811015610d7157600080fd5b5035612234565b60405180878152602001806020018060200180602001806020018060200186810386528b818151815260200191508051906020019080838360005b83811015610dcb578181015183820152602001610db3565b50505050905090810190601f168015610df85780820380516001836020036101000a031916815260200191505b5086810385528a5181528a516020918201918c019080838360005b83811015610e2b578181015183820152602001610e13565b50505050905090810190601f168015610e585780820380516001836020036101000a031916815260200191505b5086810384528951815289516020918201918b019080838360005b83811015610e8b578181015183820152602001610e73565b50505050905090810190601f168015610eb85780820380516001836020036101000a031916815260200191505b5086810383528851815288516020918201918a019080838360005b83811015610eeb578181015183820152602001610ed3565b50505050905090810190601f168015610f185780820380516001836020036101000a031916815260200191505b50868103825287518152875160209182019189019080838360005b83811015610f4b578181015183820152602001610f33565b50505050905090810190601f168015610f785780820380516001836020036101000a031916815260200191505b509b50505050505050505050505060405180910390f35b6111c9600480360360a0811015610fa557600080fd5b81359190810190604081016020820135600160201b811115610fc657600080fd5b820183602082011115610fd857600080fd5b803590602001918460018302840111600160201b83111715610ff957600080fd5b91908080601f0160208091040260200160405190810160405280939291908181526020018383808284376000920191909152509295949360208101935035915050600160201b81111561104b57600080fd5b82018360208201111561105d57600080fd5b803590602001918460018302840111600160201b8311171561107e57600080fd5b91908080601f0160208091040260200160405190810160405280939291908181526020018383808284376000920191909152509295949360208101935035915050600160201b8111156110d057600080fd5b8201836020820111156110e257600080fd5b803590602001918460018302840111600160201b8311171561110357600080fd5b91908080601f0160208091040260200160405190810160405280939291908181526020018383808284376000920191909152509295949360208101935035915050600160201b81111561115557600080fd5b82018360208201111561116757600080fd5b803590602001918460018302840111600160201b8311171561118857600080fd5b91908080601f01602080910402602001604051908101604052809392919081815260200183838082843760009201919091525092955061251b945050505050565b6040805160208082528351818301528351919283929083019185019080838360005b838110156112035781810151838201526020016111eb565b50505050905090810190601f1680156112305780820380516001836020036101000a031916815260200191505b509250505060405180910390f35b61125b6004803603602081101561125457600080fd5b5035612839565b604051808060200180602001806020018060200180602001806020018060200188810388528f818151815260200191508051906020019080838360005b838110156112b0578181015183820152602001611298565b50505050905090810190601f1680156112dd5780820380516001836020036101000a031916815260200191505b5088810387528e818151815260200191508051906020019080838360005b838110156113135781810151838201526020016112fb565b50505050905090810190601f1680156113405780820380516001836020036101000a031916815260200191505b5088810386528d5181528d516020918201918f019080838360005b8381101561137357818101518382015260200161135b565b50505050905090810190601f1680156113a05780820380516001836020036101000a031916815260200191505b5088810385528c5181528c516020918201918e019080838360005b838110156113d35781810151838201526020016113bb565b50505050905090810190601f1680156114005780820380516001836020036101000a031916815260200191505b5088810384528b5181528b516020918201918d019080838360005b8381101561143357818101518382015260200161141b565b50505050905090810190601f1680156114605780820380516001836020036101000a031916815260200191505b5088810383528a5181528a516020918201918c019080838360005b8381101561149357818101518382015260200161147b565b50505050905090810190601f1680156114c05780820380516001836020036101000a031916815260200191505b5088810382528951815289516020918201918b019080838360005b838110156114f35781810151838201526020016114db565b50505050905090810190601f1680156115205780820380516001836020036101000a031916815260200191505b509e50505050505050505050505050505060405180910390f35b610371612c82565b600380546001908101918290556040805160c08101825283815260208082018a81528284018a9052606083018990526080830188905260a08301879052600095865260028252928520825181559251805192946115a793908501929190910190612c88565b50604082015180516115c3916002840191602090910190612c88565b50606082015180516115df916003840191602090910190612c88565b50608082015180516115fb916004840191602090910190612c88565b5060a08201518051611617916005840191602090910190612c88565b509050507f7b9aa8ea81a1b5dca4315f336e401f7ce757bfc733b0562bb2106021f823b37b6003548787604051808481526020018060200180602001838103835285818151815260200191508051906020019080838360005b83811015611688578181015183820152602001611670565b50505050905090810190601f1680156116b55780820380516001836020036101000a031916815260200191505b50838103825284518152845160209182019186019080838360005b838110156116e85781810151838201526020016116d0565b50505050905090810190601f1680156117155780820380516001836020036101000a031916815260200191505b509550505050505060405180910390a195945050505050565b6003545b90565b60035481565b6001805481018082556040805160e08101825282815260208082018c81528284018c9052606083018b9052608083018a9052600060a0840181905260c084018990529485528482529284208251815592518051949592946117a3938501929190910190612c88565b50604082015180516117bf916002840191602090910190612c88565b50606082015180516117db916003840191602090910190612c88565b50608082015180516117f7916004840191602090910190612c88565b5060a0820151600582015560c0820151805161181d916007840191602090910190612c88565b505060018054600090815260208181526040808320600590810180548601905581516060810183524281528084018981528184018c90528654865285855283862092830154865260069092018452919093208151815592518051919550929361188b93908501920190612c88565b50604082015180516118a7916002840191602090910190612c88565b509050507fb4bf1d5e0466b8936db2b4da84f032fa677558bd277aa5bd4e69c4201f24585d6001548684604051808481526020018060200180602001838103835285818151815260200191508051906020019080838360005b83811015611918578181015183820152602001611900565b50505050905090810190601f1680156119455780820380516001836020036101000a031916815260200191505b50838103825284518152845160209182019186019080838360005b83811015611978578181015183820152602001611960565b50505050905090810190601f1680156119a55780820380516001836020036101000a031916815260200191505b509550505050505060405180910390a1979650505050505050565b600060208181529181526040908190208054600180830180548551600293821615610100026000190190911692909204601f8101879004870283018701909552848252919492939092830182828015611a5a5780601f10611a2f57610100808354040283529160200191611a5a565b820191906000526020600020905b815481529060010190602001808311611a3d57829003601f168201915b50505060028085018054604080516020601f6000196101006001871615020190941695909504928301859004850281018501909152818152959695945090925090830182828015611aec5780601f10611ac157610100808354040283529160200191611aec565b820191906000526020600020905b815481529060010190602001808311611acf57829003601f168201915b5050505060038301805460408051602060026001851615610100026000190190941693909304601f8101849004840282018401909252818152949594935090830182828015611b7c5780601f10611b5157610100808354040283529160200191611b7c565b820191906000526020600020905b815481529060010190602001808311611b5f57829003601f168201915b5050505060048301805460408051602060026001851615610100026000190190941693909304601f8101849004840282018401909252818152949594935090830182828015611c0c5780601f10611be157610100808354040283529160200191611c0c565b820191906000526020600020905b815481529060010190602001808311611bef57829003601f168201915b50505050600583015460078401805460408051602060026001851615610100026000190190941693909304601f81018490048402820184019092528181529596939593945090830182828015611ca35780601f10611c7857610100808354040283529160200191611ca3565b820191906000526020600020905b815481529060010190602001808311611c8657829003601f168201915b5050505050905087565b6060806060806060856040516020018082805190602001908083835b60208310611ce85780518252601f199092019160209182019101611cc9565b6001836020036101000a03801982511681845116808217855250505050505090500191505060405160208183030381529060405280519060200120600260008981526020019081526020016000206001016040516020018082805460018160011615610100020316600290048015611d975780601f10611d75576101008083540402835291820191611d97565b820191906000526020600020905b815481529060010190602001808311611d83575b50509150506040516020818303038152906040528051906020012014611dbc57600080fd5b60008781526002602081815260409283902060018082018054865192811615610100026000190116859004601f810185900485028301850190965285825294938201936003830193600484019360050192918791830182828015611e615780601f10611e3657610100808354040283529160200191611e61565b820191906000526020600020905b815481529060010190602001808311611e4457829003601f168201915b5050875460408051602060026001851615610100026000190190941693909304601f8101849004840282018401909252818152959a5089945092508401905082828015611eef5780601f10611ec457610100808354040283529160200191611eef565b820191906000526020600020905b815481529060010190602001808311611ed257829003601f168201915b5050865460408051602060026001851615610100026000190190941693909304601f810184900484028201840190925281815295995088945092508401905082828015611f7d5780601f10611f5257610100808354040283529160200191611f7d565b820191906000526020600020905b815481529060010190602001808311611f6057829003601f168201915b5050855460408051602060026001851615610100026000190190941693909304601f81018490048402820184019092528181529598508794509250840190508282801561200b5780601f10611fe05761010080835404028352916020019161200b565b820191906000526020600020905b815481529060010190602001808311611fee57829003601f168201915b5050845460408051602060026001851615610100026000190190941693909304601f8101849004840282018401909252818152959750869450925084019050828280156120995780601f1061206e57610100808354040283529160200191612099565b820191906000526020600020905b81548152906001019060200180831161207c57829003601f168201915b50505050509050945094509450945094509295509295909350565b60015490565b60006060806120c7612d06565b600086815260208181526040808320888452600601825291829020825160608101845281548152600180830180548651600293821615610100026000190190911692909204601f810186900486028301860190965285825291949293858101939192919083018282801561217c5780601f106121515761010080835404028352916020019161217c565b820191906000526020600020905b81548152906001019060200180831161215f57829003601f168201915b5050509183525050600282810180546040805160206001841615610100026000190190931694909404601f8101839004830285018301909152808452938101939083018282801561220e5780601f106121e35761010080835404028352916020019161220e565b820191906000526020600020905b8154815290600101906020018083116121f157829003601f168201915b505050919092525050815160208301516040909301519099929850965090945050505050565b60026020818152600092835260409283902080546001808301805487519281161561010002600019011695909504601f81018590048502820185019096528581529094919390929091908301828280156122cf5780601f106122a4576101008083540402835291602001916122cf565b820191906000526020600020905b8154815290600101906020018083116122b257829003601f168201915b50505060028085018054604080516020601f60001961010060018716150201909416959095049283018590048502810185019091528181529596959450909250908301828280156123615780601f1061233657610100808354040283529160200191612361565b820191906000526020600020905b81548152906001019060200180831161234457829003601f168201915b5050505060038301805460408051602060026001851615610100026000190190941693909304601f81018490048402820184019092528181529495949350908301828280156123f15780601f106123c6576101008083540402835291602001916123f1565b820191906000526020600020905b8154815290600101906020018083116123d457829003601f168201915b5050505060048301805460408051602060026001851615610100026000190190941693909304601f81018490048402820184019092528181529495949350908301828280156124815780601f1061245657610100808354040283529160200191612481565b820191906000526020600020905b81548152906001019060200180831161246457829003601f168201915b5050505060058301805460408051602060026001851615610100026000190190941693909304601f81018490048402820184019092528181529495949350908301828280156125115780601f106124e657610100808354040283529160200191612511565b820191906000526020600020905b8154815290600101906020018083116124f457829003601f168201915b5050505050905086565b6060826040516020018082805190602001908083835b602083106125505780518252601f199092019160209182019101612531565b6001836020036101000a0380198251168184511680821785525050505050509050019150506040516020818303038152906040528051906020012060008088815260200190815260200160002060070160405160200180828054600181600116156101000203166002900480156125fe5780601f106125dc5761010080835404028352918201916125fe565b820191906000526020600020905b8154815290600101906020018083116125ea575b5050915050604051602081830303815290604052805190602001201461262357600080fd5b816040516020018082805190602001908083835b602083106126565780518252601f199092019160209182019101612637565b6001836020036101000a0380198251168184511680821785525050505050509050019150506040516020818303038152906040528051906020012060008088815260200190815260200160002060060160008060008a8152602001908152602001600020600501548152602001908152602001600020600201604051602001808280546001816001161561010002031660029004801561272d5780601f1061270b57610100808354040283529182019161272d565b820191906000526020600020905b815481529060010190602001808311612719575b5050915050604051602081830303815290604052805190602001201461275257600080fd5b60008681526020818152604080832060058101805460019081019182905583516060810185524281528086018b81528186018d9052928752600690930185529290942081518155935180519194936127af93850192910190612c88565b50604082015180516127cb916002840191602090910190612c88565b509050507fb28b37b30cfed38648f1defb3c0a6beb4f3aa749fcf21c7ad0f355b3285e36c38686856040518084815260200180602001806020018381038352858181518152602001915080519060200190808383600083811015611688578181015183820152602001611670565b600081815260208181526040808320600581015484526006810183528184208585529383526001808201805484516002828516156101000260001901909216829004601f8101889004880282018801909652858152606097889788978897889788978897909681840196600485019692810195930193600381019360079091019289919083018282801561290e5780601f106128e35761010080835404028352916020019161290e565b820191906000526020600020905b8154815290600101906020018083116128f157829003601f168201915b5050895460408051602060026001851615610100026000190190941693909304601f8101849004840282018401909252818152959c508b94509250840190508282801561299c5780601f106129715761010080835404028352916020019161299c565b820191906000526020600020905b81548152906001019060200180831161297f57829003601f168201915b5050885460408051602060026001851615610100026000190190941693909304601f8101849004840282018401909252818152959b508a945092508401905082828015612a2a5780601f106129ff57610100808354040283529160200191612a2a565b820191906000526020600020905b815481529060010190602001808311612a0d57829003601f168201915b5050875460408051602060026001851615610100026000190190941693909304601f8101849004840282018401909252818152959a5089945092508401905082828015612ab85780601f10612a8d57610100808354040283529160200191612ab8565b820191906000526020600020905b815481529060010190602001808311612a9b57829003601f168201915b5050865460408051602060026001851615610100026000190190941693909304601f810184900484028201840190925281815295995088945092508401905082828015612b465780601f10612b1b57610100808354040283529160200191612b46565b820191906000526020600020905b815481529060010190602001808311612b2957829003601f168201915b5050855460408051602060026001851615610100026000190190941693909304601f810184900484028201840190925281815295985087945092508401905082828015612bd45780601f10612ba957610100808354040283529160200191612bd4565b820191906000526020600020905b815481529060010190602001808311612bb757829003601f168201915b5050845460408051602060026001851615610100026000190190941693909304601f810184900484028201840190925281815295975086945092508401905082828015612c625780601f10612c3757610100808354040283529160200191612c62565b820191906000526020600020905b815481529060010190602001808311612c4557829003601f168201915b505050505090509650965096509650965096509650919395979092949650565b60015481565b828054600181600116156101000203166002900490600052602060002090601f016020900481019282601f10612cc957805160ff1916838001178555612cf6565b82800160010185558215612cf6579182015b82811115612cf6578251825591602001919060010190612cdb565b50612d02929150612d27565b5090565b60405180606001604052806000815260200160608152602001606081525090565b61173291905b80821115612d025760008155600101612d2d56fea265627a7a72315820e6cda8cfc0891daf1d7e587a98728c6ec64390b58e20eda8df9e5fa09510987e64736f6c63430005100032",
  "source": "pragma solidity >=0.4.21 <0.7.0;\r\nimport './AssetLibrary.sol';\r\nimport './IdentityLibrary.sol';\r\n\r\ncontract AssetTracker {\r\n    \r\n    mapping(uint => AssetLibrary.Asset) public AssetStore;\r\n    uint256 public assetCount= 0;\r\n    \r\n    function createAsset(\r\n        string memory _batchNo,\r\n        string memory _name,\r\n        string memory _description,\r\n        string memory _manufacturer,\r\n        string memory _owner,\r\n        string memory  _quantity,\r\n        string memory _status\r\n        ) public returns(uint256) {\r\n        assetCount++;\r\n        AssetStore[assetCount]= AssetLibrary.Asset(assetCount, _batchNo, _name, _description, _manufacturer, 0, _quantity);\r\n        AssetStore[assetCount].statusCount++; \r\n        AssetStore[assetCount].status[AssetStore[assetCount].statusCount]=AssetLibrary.Status(block.timestamp, _status, _owner);\r\n        emit AssetCreate(assetCount, _manufacturer, _status);\r\n    }\r\n    function getAsset(uint _id) view public returns(string memory, string memory, string memory, string memory, string memory, string memory,string memory) {\r\n        return (AssetStore[_id].batchNo, AssetStore[_id].name, AssetStore[_id].manufacturer, AssetStore[_id].status[AssetStore[_id].statusCount].owner, AssetStore[_id].status[AssetStore[_id].statusCount].status, AssetStore[_id].description, AssetStore[_id].quantity);\r\n    }\r\n    function transferAsset(uint _id, string memory _newOwner, string memory _status, string memory _quantity, string memory _oldOwner) public returns(string memory) {\r\n        require(keccak256(abi.encodePacked((AssetStore[_id].quantity))) == keccak256(abi.encodePacked((_quantity))));\r\n        require(keccak256(abi.encodePacked((AssetStore[_id].status[AssetStore[_id].statusCount].owner))) == keccak256(abi.encodePacked((_oldOwner))));\r\n        AssetStore[_id].statusCount++;\r\n        AssetStore[_id].status[AssetStore[_id].statusCount]=AssetLibrary.Status(block.timestamp, _status, _newOwner);\r\n        emit AssetTransfer(_id, _newOwner,_quantity);\r\n    }\r\n\r\n    function getAssetCount() view public returns(uint) {\r\n        return assetCount;\r\n    }\r\n\r\n    function getStatus(uint _id, uint _statusCount) view public returns(uint, string memory, string memory) {\r\n        AssetLibrary.Status memory s= AssetStore[_id].status[_statusCount];\r\n        return (s.time, s.status, s.owner);\r\n    }\r\n\r\n    event AssetCreate(uint id, string manufacturer, string status);\r\n    event AssetTransfer(uint id, string newOwner, string quantity);\r\n\r\n    mapping(uint => IdentityLibrary.Identity) public IdentityStore;\r\n    uint256 public identityCount= 0;\r\n    \r\n    function createIdentity(\r\n        string memory _addresser,\r\n        string memory _name,\r\n        string memory _phone,\r\n        string memory _email,\r\n        string memory _password\r\n        ) public returns(uint256) {\r\n        identityCount++;\r\n        IdentityStore[identityCount]= IdentityLibrary.Identity(identityCount, _addresser, _name, _phone, _email, _password);\r\n        emit IdentityCreate(identityCount, _addresser, _name);\r\n    }\r\n    function getIdentity(uint _id,string memory _addresser) view public returns(string memory, string memory, string memory, string memory, string memory) {\r\n        require(keccak256(abi.encodePacked((IdentityStore[_id].addresser))) == keccak256(abi.encodePacked((_addresser))));\r\n        return (IdentityStore[_id].addresser, IdentityStore[_id].name, IdentityStore[_id].phone, IdentityStore[_id].email, IdentityStore[_id].password);\r\n    }\r\n\r\n    function getidentityCount() view public returns(uint) {\r\n        return identityCount;\r\n    }\r\n\r\n    event IdentityCreate(uint id, string manufacturer, string status);\r\n\r\n\r\n}",
  "sourcePath": "C:\\Users\\Aayush\\hackChennai\\contracts\\AssetTracker.sol",
  "compiler": {
    "name": "solc",
    "version": "0.5.16+commit.9c3226ce.Emscripten.clang"
  },
  "schemaVersion": "3.4.13",
  "updatedAt": "2023-04-16T10:50:21.625Z",
  "networkType": "ethereum",
  "devdoc": {
    "methods": {}
  },
  "userdoc": {
    "methods": {}
  }
}